{
  "contractName": "BadAuction",
  "abi": [
    {
      "constant": true,
      "inputs": [],
      "name": "getHighestBidder",
      "outputs": [
        {
          "name": "",
          "type": "address"
        }
      ],
      "payable": false,
      "stateMutability": "view",
      "type": "function"
    },
    {
      "constant": true,
      "inputs": [],
      "name": "getHighestBid",
      "outputs": [
        {
          "name": "",
          "type": "uint256"
        }
      ],
      "payable": false,
      "stateMutability": "view",
      "type": "function"
    },
    {
      "payable": true,
      "stateMutability": "payable",
      "type": "fallback"
    },
    {
      "constant": false,
      "inputs": [],
      "name": "bid",
      "outputs": [
        {
          "name": "",
          "type": "bool"
        }
      ],
      "payable": true,
      "stateMutability": "payable",
      "type": "function"
    },
    {
      "constant": false,
      "inputs": [],
      "name": "reduceBid",
      "outputs": [],
      "payable": false,
      "stateMutability": "nonpayable",
      "type": "function"
    }
  ],
  "bytecode": "0x6060604052341561000f57600080fd5b6103198061001e6000396000f300606060405260043610610061576000357c0100000000000000000000000000000000000000000000000000000000900463ffffffff1680623495a414610099578063057ae235146100ee5780631998aeef146101035780634979440a14610125575b3373ffffffffffffffffffffffffffffffffffffffff166108fc349081150290604051600060405180830381858888f1935050505050005b34156100a457600080fd5b6100ac61014e565b604051808273ffffffffffffffffffffffffffffffffffffffff1673ffffffffffffffffffffffffffffffffffffffff16815260200191505060405180910390f35b34156100f957600080fd5b610101610177565b005b61010b6101eb565b604051808215151515815260200191505060405180910390f35b341561013057600080fd5b6101386102e3565b6040518082815260200191505060405180910390f35b60008060009054906101000a900473ffffffffffffffffffffffffffffffffffffffff16905090565b600180600082825403925050819055506000809054906101000a900473ffffffffffffffffffffffffffffffffffffffff1673ffffffffffffffffffffffffffffffffffffffff166108fc60019081150290604051600060405180830381858888f1935050505015156101e957600080fd5b565b60006001543411156102a5576000809054906101000a900473ffffffffffffffffffffffffffffffffffffffff1673ffffffffffffffffffffffffffffffffffffffff166108fc6001549081150290604051600060405180830381858888f19350505050156102a45734600181905550336000806101000a81548173ffffffffffffffffffffffffffffffffffffffff021916908373ffffffffffffffffffffffffffffffffffffffff160217905550600190506102e0565b5b3373ffffffffffffffffffffffffffffffffffffffff166108fc349081150290604051600060405180830381858888f1935050505050600090505b90565b60006001549050905600a165627a7a72305820cd7570be6e70786622554f3d21c565e8b4a7f34491066b4e4fa736bceda95d740029",
  "source": "pragma solidity 0.4.19;\n\nimport \"./AuctionInterface.sol\";\n\n/** @title BadAuction */\ncontract BadAuction is AuctionInterface {\n\n\n    /* Bid function, vulnerable to reentrency attack.\n     * Must return true on successful send and/or bid,\n     * bidder reassignment\n     * Must return false on failure and send people\n     * their funds back\n     */\n    function bid() payable external returns (bool) {\n        if (msg.value > highestBid) {\n        \tif (highestBidder.send(highestBid)) {\n        \t\thighestBid = msg.value;\n            \thighestBidder = msg.sender;\n            \treturn true;\n        \t}\n        }\n        msg.sender.send(msg.value);\n        return false;\n    }\n\n\n    /*  Reduce bid function. Vulnerable to attack.\n        Allows current highest bidder to reduce\n        their bid by 1. Do NOT make changes here.\n        Instead notice the vulnerabilities, and\n        implement the function properly in GoodAuction.sol  */\n\n    function reduceBid() external {\n        highestBid -= 1;\n        require(highestBidder.send(1));\n    }\n\n\n    /*  Remember this fallback function\n        gets invoked if somebody calls a\n        function that does not exist in this\n        contract. But we're good people so we don't\n        want to profit on people's mistakes.\n        How do we send people their money back?  */\n\n    function () payable public {\n        msg.sender.send(msg.value);\n    }\n\n}\n",
  "sourcePath": "/Users/vitali/IdeaProjects/blockchain-dev/sp18-lab03/contracts/BadAuction.sol",
  "compiler": {
    "name": "solc",
    "version": "0.4.19+commit.c4cbbb05.Emscripten.clang"
  },
  "schemaVersion": "1.0.1",
  "updatedAt": "2018-03-02T00:05:40.548Z"
}