{
  "contractName": "GoodAuction",
  "abi": [
    {
      "constant": true,
      "inputs": [],
      "name": "getHighestBidder",
      "outputs": [
        {
          "name": "",
          "type": "address"
        }
      ],
      "payable": false,
      "stateMutability": "view",
      "type": "function"
    },
    {
      "constant": true,
      "inputs": [],
      "name": "getHighestBid",
      "outputs": [
        {
          "name": "",
          "type": "uint256"
        }
      ],
      "payable": false,
      "stateMutability": "view",
      "type": "function"
    },
    {
      "payable": true,
      "stateMutability": "payable",
      "type": "fallback"
    },
    {
      "constant": false,
      "inputs": [],
      "name": "bid",
      "outputs": [
        {
          "name": "",
          "type": "bool"
        }
      ],
      "payable": true,
      "stateMutability": "payable",
      "type": "function"
    },
    {
      "constant": false,
      "inputs": [],
      "name": "withdrawRefund",
      "outputs": [
        {
          "name": "",
          "type": "bool"
        }
      ],
      "payable": false,
      "stateMutability": "nonpayable",
      "type": "function"
    },
    {
      "constant": true,
      "inputs": [],
      "name": "getMyBalance",
      "outputs": [
        {
          "name": "",
          "type": "uint256"
        }
      ],
      "payable": false,
      "stateMutability": "view",
      "type": "function"
    },
    {
      "constant": false,
      "inputs": [],
      "name": "reduceBid",
      "outputs": [],
      "payable": false,
      "stateMutability": "nonpayable",
      "type": "function"
    }
  ],
  "bytecode": "0x6060604052341561000f57600080fd5b61064a8061001e6000396000f300606060405260043610610077576000357c0100000000000000000000000000000000000000000000000000000000900463ffffffff1680623495a4146100bc578063057ae23514610111578063110f8874146101265780631998aeef146101535780634979440a146101755780634c7389091461019e575b3373ffffffffffffffffffffffffffffffffffffffff166108fc349081150290604051600060405180830381858888f1935050505015156100b757600080fd5b600080fd5b34156100c757600080fd5b6100cf6101c7565b604051808273ffffffffffffffffffffffffffffffffffffffff1673ffffffffffffffffffffffffffffffffffffffff16815260200191505060405180910390f35b341561011c57600080fd5b6101246101f0565b005b341561013157600080fd5b6101396102cf565b604051808215151515815260200191505060405180910390f35b61015b6103ed565b604051808215151515815260200191505060405180910390f35b341561018057600080fd5b6101886105cd565b6040518082815260200191505060405180910390f35b34156101a957600080fd5b6101b16105d7565b6040518082815260200191505060405180910390f35b60008060009054906101000a900473ffffffffffffffffffffffffffffffffffffffff16905090565b6000809054906101000a900473ffffffffffffffffffffffffffffffffffffffff1673ffffffffffffffffffffffffffffffffffffffff163373ffffffffffffffffffffffffffffffffffffffff1614151561024b57600080fd5b6001805411151561025b57600080fd5b600180600082825403925050819055506000809054906101000a900473ffffffffffffffffffffffffffffffffffffffff1673ffffffffffffffffffffffffffffffffffffffff166108fc60019081150290604051600060405180830381858888f1935050505015156102cd57600080fd5b565b600080600260003373ffffffffffffffffffffffffffffffffffffffff1673ffffffffffffffffffffffffffffffffffffffff1681526020019081526020016000205411156103e5576000600260003373ffffffffffffffffffffffffffffffffffffffff1673ffffffffffffffffffffffffffffffffffffffff168152602001908152602001600020819055503373ffffffffffffffffffffffffffffffffffffffff166108fc600260003373ffffffffffffffffffffffffffffffffffffffff1673ffffffffffffffffffffffffffffffffffffffff168152602001908152602001600020549081150290604051600060405180830381858888f1935050505015156103dc57600080fd5b600190506103ea565b600090505b90565b600060015434111561052b57600154600154600260008060009054906101000a900473ffffffffffffffffffffffffffffffffffffffff1673ffffffffffffffffffffffffffffffffffffffff1673ffffffffffffffffffffffffffffffffffffffff16815260200190815260200160002054011015151561046b57fe5b600154600260008060009054906101000a900473ffffffffffffffffffffffffffffffffffffffff1673ffffffffffffffffffffffffffffffffffffffff1673ffffffffffffffffffffffffffffffffffffffff1681526020019081526020016000206000828254019250508190555034600181905550336000806101000a81548173ffffffffffffffffffffffffffffffffffffffff021916908373ffffffffffffffffffffffffffffffffffffffff160217905550600190506105ca565b3434600260003373ffffffffffffffffffffffffffffffffffffffff1673ffffffffffffffffffffffffffffffffffffffff16815260200190815260200160002054011015151561057857fe5b34600260003373ffffffffffffffffffffffffffffffffffffffff1673ffffffffffffffffffffffffffffffffffffffff16815260200190815260200160002060008282540192505081905550600090505b90565b6000600154905090565b6000600260003373ffffffffffffffffffffffffffffffffffffffff1673ffffffffffffffffffffffffffffffffffffffff168152602001908152602001600020549050905600a165627a7a723058201c01aa95298e193670a0f90a3873218264d75874ee3c475cae7e76aaf05b01300029",
  "source": "pragma solidity 0.4.19;\n\nimport \"./AuctionInterface.sol\";\n\n/** @title GoodAuction */\ncontract GoodAuction is AuctionInterface {\n\n    /* New data structure, keeps track of refunds owed */\n    mapping(address => uint) refunds;\n\n\n    /*  Bid function, now shifted to pull paradigm\n        Must return true on successful send and/or bid, bidder\n        reassignment. Must return false on failure and \n        allow people to retrieve their funds  */\n    function bid() payable external returns(bool) {\n        // YOUR CODE HERE\n        if (msg.value > highestBid) {\n            assert((refunds[highestBidder] + highestBid) >= highestBid);\n            refunds[highestBidder] += highestBid;\n            highestBid = msg.value;\n            highestBidder = msg.sender;\n            return true;\n        } else {\n            assert((refunds[msg.sender] + msg.value) >= msg.value);\n            refunds[msg.sender] += msg.value;\n            return false;\n        }\n    }\n\n    /*  Implement withdraw function to complete new \n        pull paradigm. Returns true on successful \n        return of owed funds and false on failure\n        or no funds owed.  */\n    function withdrawRefund() external returns(bool) {\n        // YOUR CODE HERE\n        if (refunds[msg.sender] > 0) {\n            refunds[msg.sender] = 0;\n            msg.sender.transfer(refunds[msg.sender]);\n            return true;\n        }\n        return false;\n    }\n\n    /*  Allow users to check the amount they are owed\n        before calling withdrawRefund(). Function returns\n        amount owed.  */\n    function getMyBalance() constant external returns(uint) {\n        return refunds[msg.sender];\n    }\n\n\n    /*  Consider implementing this modifier\n        and applying it to the reduceBid function \n        you fill in below. */\n    modifier canReduce() {\n        require(msg.sender == highestBidder);\n        require(highestBid > 1);\n        _;\n    }\n\n\n    /*  Rewrite reduceBid from BadAuction to fix\n        the security vulnerabilities. Should allow the\n        current highest bidder only to reduce their bid amount */\n    function reduceBid() external canReduce() {\n        highestBid -= 1;\n        highestBidder.transfer(1);\n    }\n\n\n    /*  Remember this fallback function\n        gets invoked if somebody calls a\n        function that does not exist in this\n        contract. But we're good people so we don't\n        want to profit on people's mistakes.\n        How do we send people their money back?  */\n\n    function () payable public {\n        // YOUR CODE HERE\n        msg.sender.transfer(msg.value);\n        revert();\n    }\n}\n",
  "sourcePath": "/Users/vitali/IdeaProjects/blockchain-dev/sp18-lab03/contracts/GoodAuction.sol",
  "compiler": {
    "name": "solc",
    "version": "0.4.19+commit.c4cbbb05.Emscripten.clang"
  },
  "schemaVersion": "1.0.1",
  "updatedAt": "2018-03-01T22:16:56.855Z"
}